{
  "address": "0xb28901EaA5d0d31B7727802d90082F5C0E98063c",
  "abi": [
    {
      "anonymous": false,
      "inputs": [
        {
          "indexed": true,
          "internalType": "address",
          "name": "creator",
          "type": "address"
        },
        {
          "indexed": true,
          "internalType": "string",
          "name": "name",
          "type": "string"
        },
        {
          "indexed": false,
          "internalType": "uint256",
          "name": "index",
          "type": "uint256"
        }
      ],
      "name": "SecretCreated",
      "type": "event"
    },
    {
      "anonymous": false,
      "inputs": [
        {
          "indexed": true,
          "internalType": "address",
          "name": "creator",
          "type": "address"
        },
        {
          "indexed": true,
          "internalType": "string",
          "name": "name",
          "type": "string"
        },
        {
          "indexed": false,
          "internalType": "uint256",
          "name": "index",
          "type": "uint256"
        }
      ],
      "name": "SecretRevealed",
      "type": "event"
    },
    {
      "inputs": [
        {
          "internalType": "address",
          "name": "",
          "type": "address"
        }
      ],
      "name": "_lastSeen",
      "outputs": [
        {
          "internalType": "uint256",
          "name": "",
          "type": "uint256"
        }
      ],
      "stateMutability": "view",
      "type": "function"
    },
    {
      "inputs": [
        {
          "internalType": "uint256",
          "name": "",
          "type": "uint256"
        }
      ],
      "name": "_metas",
      "outputs": [
        {
          "internalType": "address",
          "name": "creator",
          "type": "address"
        },
        {
          "internalType": "string",
          "name": "name",
          "type": "string"
        },
        {
          "internalType": "uint256",
          "name": "longevity",
          "type": "uint256"
        }
      ],
      "stateMutability": "view",
      "type": "function"
    },
    {
      "inputs": [
        {
          "internalType": "string",
          "name": "name",
          "type": "string"
        },
        {
          "internalType": "uint256",
          "name": "longevity",
          "type": "uint256"
        },
        {
          "internalType": "bytes",
          "name": "secret",
          "type": "bytes"
        }
      ],
      "name": "createSecret",
      "outputs": [],
      "stateMutability": "nonpayable",
      "type": "function"
    },
    {
      "inputs": [
        {
          "internalType": "address",
          "name": "owner",
          "type": "address"
        }
      ],
      "name": "getLastSeen",
      "outputs": [
        {
          "internalType": "uint256",
          "name": "",
          "type": "uint256"
        }
      ],
      "stateMutability": "view",
      "type": "function"
    },
    {
      "inputs": [
        {
          "internalType": "uint256",
          "name": "offset",
          "type": "uint256"
        },
        {
          "internalType": "uint256",
          "name": "count",
          "type": "uint256"
        }
      ],
      "name": "getMetas",
      "outputs": [
        {
          "components": [
            {
              "internalType": "address",
              "name": "creator",
              "type": "address"
            },
            {
              "internalType": "string",
              "name": "name",
              "type": "string"
            },
            {
              "internalType": "uint256",
              "name": "longevity",
              "type": "uint256"
            }
          ],
          "internalType": "struct Vigil.SecretMetadata[]",
          "name": "",
          "type": "tuple[]"
        }
      ],
      "stateMutability": "view",
      "type": "function"
    },
    {
      "inputs": [],
      "name": "refreshSecrets",
      "outputs": [],
      "stateMutability": "nonpayable",
      "type": "function"
    },
    {
      "inputs": [
        {
          "internalType": "uint256",
          "name": "index",
          "type": "uint256"
        }
      ],
      "name": "revealSecret",
      "outputs": [
        {
          "internalType": "bytes",
          "name": "",
          "type": "bytes"
        }
      ],
      "stateMutability": "nonpayable",
      "type": "function"
    }
  ],
  "transactionHash": "0xf51ab62441103db69f4ee081504272663a4c594bfccac436dbf3998f0e223ba5",
  "args": [],
  "numDeployments": 4,
  "solcInputHash": "41dcb46df908368dc40062b548f5408a",
  "bytecode": "0x608060405234801561001057600080fd5b50610da8806100206000396000f3fe608060405234801561001057600080fd5b506004361061007d5760003560e01c806388193a251161005b57806388193a25146100f757806397513690146100ff57806398df67c61461011f578063cafc24ff1461013f57600080fd5b8063413c0fd8146100825780634aec3a321461009757806361b94576146100c0575b600080fd5b610095610090366004610863565b610161565b005b6100aa6100a53660046108dd565b6102ce565b6040516100b79190610945565b60405180910390f35b6100e96100ce3660046109d1565b6001600160a01b031660009081526002602052604090205490565b6040519081526020016100b7565b61009561050b565b6100e961010d3660046109d1565b60026020526000908152604090205481565b61013261012d366004610a01565b610524565b6040516100b79190610a1a565b61015261014d366004610a01565b610752565b6040516100b793929190610a2d565b610178336000908152600260205260409020429055565b60006040518060600160405280336001600160a01b0316815260200187878080601f0160208091040260200160405190810160405280939291908181526020018383808284376000920182905250938552505050602091820187905283546001808201865594825290829020835160039092020180546001600160a01b0319166001600160a01b0390921691909117815590820151919290919082019061021f9082610b00565b50604091909101516002909101556001805480820182556000919091527fb10e2d527612073b26eecdfd717e6a320cf44b4afac2b0732d9fcbe2b7fa0cf601610269828483610bc0565b50848460405161027a929190610c81565b60405190819003902060005433907f12a499eb02c8cf9494d3a624d30d5f39809807866252f6783a9ad28431d52e95906102b690600190610ca7565b60405190815260200160405180910390a35050505050565b6000546060908310610338576040805160008082526020820190925290610330565b61031d604051806060016040528060006001600160a01b0316815260200160608152602001600081525090565b8152602001906001900390816102f05790505b509050610505565b600080546103468486610cba565b111561035f5760005461035a908590610ca7565b610361565b825b905060008167ffffffffffffffff81111561037e5761037e610a61565b6040519080825280602002602001820160405280156103dc57816020015b6103c9604051806060016040528060006001600160a01b0316815260200160608152602001600081525090565b81526020019060019003908161039c5790505b50905060005b828110156105005760006103f68288610cba565b8154811061040657610406610ccd565b6000918252602091829020604080516060810190915260039092020180546001600160a01b03168252600181018054929391929184019161044690610a77565b80601f016020809104026020016040519081016040528092919081815260200182805461047290610a77565b80156104bf5780601f10610494576101008083540402835291602001916104bf565b820191906000526020600020905b8154815290600101906020018083116104a257829003601f168201915b505050505081526020016002820154815250508282815181106104e4576104e4610ccd565b6020026020010181905250806104f990610ce3565b90506103e2565b509150505b92915050565b610522336000908152600260205260409020429055565b565b600054606090821061056e5760405162461bcd60e51b815260206004820152600e60248201526d1b9bc81cdd58da081cd958dc995d60921b60448201526064015b60405180910390fd5b600080838154811061058257610582610ccd565b6000918252602082206003909102015481546001600160a01b0390911692508190859081106105b3576105b3610ccd565b6000918252602080832060026003909302018201546001600160a01b03861684529190526040909120546105e79190610cba565b9050804210156106275760405162461bcd60e51b815260206004820152600b60248201526a1b9bdd08195e1c1a5c995960aa1b6044820152606401610565565b6000848154811061063a5761063a610ccd565b90600052602060002090600302016001016040516106589190610cfc565b6040518091039020826001600160a01b03167f08acac239b874e19cf736ed5370e1bc54e17ac10c96028aeaba701c13081d02d8660405161069b91815260200190565b60405180910390a3600184815481106106b6576106b6610ccd565b9060005260206000200180546106cb90610a77565b80601f01602080910402602001604051908101604052809291908181526020018280546106f790610a77565b80156107445780601f1061071957610100808354040283529160200191610744565b820191906000526020600020905b81548152906001019060200180831161072757829003601f168201915b505050505092505050919050565b6000818154811061076257600080fd5b6000918252602090912060039091020180546001820180546001600160a01b0390921693509061079190610a77565b80601f01602080910402602001604051908101604052809291908181526020018280546107bd90610a77565b801561080a5780601f106107df5761010080835404028352916020019161080a565b820191906000526020600020905b8154815290600101906020018083116107ed57829003601f168201915b5050505050908060020154905083565b60008083601f84011261082c57600080fd5b50813567ffffffffffffffff81111561084457600080fd5b60208301915083602082850101111561085c57600080fd5b9250929050565b60008060008060006060868803121561087b57600080fd5b853567ffffffffffffffff8082111561089357600080fd5b61089f89838a0161081a565b90975095506020880135945060408801359150808211156108bf57600080fd5b506108cc8882890161081a565b969995985093965092949392505050565b600080604083850312156108f057600080fd5b50508035926020909101359150565b6000815180845260005b8181101561092557602081850181015186830182015201610909565b506000602082860101526020601f19601f83011685010191505092915050565b60006020808301818452808551808352604092508286019150828160051b87010184880160005b838110156109c357888303603f19018552815180516001600160a01b03168452878101516060898601819052906109a5828701826108ff565b9289015195890195909552509487019492509086019060010161096c565b509098975050505050505050565b6000602082840312156109e357600080fd5b81356001600160a01b03811681146109fa57600080fd5b9392505050565b600060208284031215610a1357600080fd5b5035919050565b6020815260006109fa60208301846108ff565b6001600160a01b0384168152606060208201819052600090610a51908301856108ff565b9050826040830152949350505050565b634e487b7160e01b600052604160045260246000fd5b600181811c90821680610a8b57607f821691505b602082108103610aab57634e487b7160e01b600052602260045260246000fd5b50919050565b601f821115610afb57600081815260208120601f850160051c81016020861015610ad85750805b601f850160051c820191505b81811015610af757828155600101610ae4565b5050505b505050565b815167ffffffffffffffff811115610b1a57610b1a610a61565b610b2e81610b288454610a77565b84610ab1565b602080601f831160018114610b635760008415610b4b5750858301515b600019600386901b1c1916600185901b178555610af7565b600085815260208120601f198616915b82811015610b9257888601518255948401946001909101908401610b73565b5085821015610bb05787850151600019600388901b60f8161c191681555b5050505050600190811b01905550565b67ffffffffffffffff831115610bd857610bd8610a61565b610bec83610be68354610a77565b83610ab1565b6000601f841160018114610c205760008515610c085750838201355b600019600387901b1c1916600186901b178355610c7a565b600083815260209020601f19861690835b82811015610c515786850135825560209485019460019092019101610c31565b5086821015610c6e5760001960f88860031b161c19848701351681555b505060018560011b0183555b5050505050565b8183823760009101908152919050565b634e487b7160e01b600052601160045260246000fd5b8181038181111561050557610505610c91565b8082018082111561050557610505610c91565b634e487b7160e01b600052603260045260246000fd5b600060018201610cf557610cf5610c91565b5060010190565b6000808354610d0a81610a77565b60018281168015610d225760018114610d3757610d66565b60ff1984168752821515830287019450610d66565b8760005260208060002060005b85811015610d5d5781548a820152908401908201610d44565b50505082870194505b5092969550505050505056fea2646970667358221220e093fc4a5e1963d77ffc80cc64cadf7947137597df4908c23c850b531c2a00f364736f6c63430008140033",
  "devdoc": {
    "kind": "dev",
    "methods": {},
    "stateVariables": {
      "_lastSeen": {
        "details": "The unix timestamp at which the address was last seen."
      }
    },
    "version": 1
  },
  "userdoc": {
    "kind": "user",
    "methods": {
      "getLastSeen(address)": {
        "notice": "Returns the time (in seconds since the epoch) at which the owner was last seen, or zero if never seen."
      },
      "revealSecret(uint256)": {
        "notice": "Reveals the secret at the specified index."
      }
    },
    "version": 1
  },
  "storageLayout": {
    "storage": [
      {
        "astId": 29,
        "contract": "contracts/Vigil.sol:Vigil",
        "label": "_metas",
        "offset": 0,
        "slot": "0",
        "type": "t_array(t_struct(SecretMetadata)9_storage)dyn_storage"
      },
      {
        "astId": 32,
        "contract": "contracts/Vigil.sol:Vigil",
        "label": "_secrets",
        "offset": 0,
        "slot": "1",
        "type": "t_array(t_bytes_storage)dyn_storage"
      },
      {
        "astId": 37,
        "contract": "contracts/Vigil.sol:Vigil",
        "label": "_lastSeen",
        "offset": 0,
        "slot": "2",
        "type": "t_mapping(t_address,t_uint256)"
      }
    ],
    "types": {
      "t_address": {
        "encoding": "inplace",
        "label": "address",
        "numberOfBytes": "20"
      },
      "t_array(t_bytes_storage)dyn_storage": {
        "base": "t_bytes_storage",
        "encoding": "dynamic_array",
        "label": "bytes[]",
        "numberOfBytes": "32"
      },
      "t_array(t_struct(SecretMetadata)9_storage)dyn_storage": {
        "base": "t_struct(SecretMetadata)9_storage",
        "encoding": "dynamic_array",
        "label": "struct Vigil.SecretMetadata[]",
        "numberOfBytes": "32"
      },
      "t_bytes_storage": {
        "encoding": "bytes",
        "label": "bytes",
        "numberOfBytes": "32"
      },
      "t_mapping(t_address,t_uint256)": {
        "encoding": "mapping",
        "key": "t_address",
        "label": "mapping(address => uint256)",
        "numberOfBytes": "32",
        "value": "t_uint256"
      },
      "t_string_storage": {
        "encoding": "bytes",
        "label": "string",
        "numberOfBytes": "32"
      },
      "t_struct(SecretMetadata)9_storage": {
        "encoding": "inplace",
        "label": "struct Vigil.SecretMetadata",
        "members": [
          {
            "astId": 3,
            "contract": "contracts/Vigil.sol:Vigil",
            "label": "creator",
            "offset": 0,
            "slot": "0",
            "type": "t_address"
          },
          {
            "astId": 5,
            "contract": "contracts/Vigil.sol:Vigil",
            "label": "name",
            "offset": 0,
            "slot": "1",
            "type": "t_string_storage"
          },
          {
            "astId": 8,
            "contract": "contracts/Vigil.sol:Vigil",
            "label": "longevity",
            "offset": 0,
            "slot": "2",
            "type": "t_uint256"
          }
        ],
        "numberOfBytes": "96"
      },
      "t_uint256": {
        "encoding": "inplace",
        "label": "uint256",
        "numberOfBytes": "32"
      }
    }
  }
}